:020000040800F2
:100000006C080020E5010008C90B0008CD0B0008B2
:10001000D10B0008D50B0008D90B00081502000809
:10002000190200081D02000821020008E10B000867
:10003000DD0B000825020008E50B0008E90B0008AD
:10004000ED0B0008F10B0008F50B0008F90B000898
:10005000FD0B0008010C0008050C0008090C000845
:100060000D0C0008110C0008150C0008190C0008F4
:100070001D0C0008210C0008250C0008290C0008A4
:100080002D0C0008310C0008350C0008390C000854
:100090003D0C0008410C0008450C0008490C000804
:1000A0004D0C0008510C0008550C0008590C0008B4
:1000B0005D0C0008610C0008650C0008690C000864
:1000C0006D0C0008710C0008750C0008790C000814
:1000D0007D0C0008810C0008850C0008890C0008C4
:1000E0008D0C0008910C0008950C0008990C000874
:1000F0009D0C0008A10C0008A50C0008A90C000824
:10010000AD0C0008B10C0008B50C0008B90C0008D3
:10011000BD0C0008C10C0008C50C0008C90C000883
:10012000CD0C0008D10C0008D50C0008D90C000833
:1001300000000000000000000000000000000000BF
:1001400000000000000000000000000000000000AF
:10015000000000000000000000000000000000009F
:10016000000000000000000000000000000000008F
:10017000000000000000000000000000000000007F
:10018000000000000000000000000000000000006F
:10019000000000000000000000000000000000005F
:1001A000000000000000000000000000000000004F
:1001B0000120704710B5094C02E002F03BFC0C3402
:1001C0000748844208D26068A16822688142F4D15D
:1001D000002102F03BFCF2E710BD00BF842A0008BA
:1001E0009C2A0008024CA04730B1024CA04703E013
:1001F000B1010008B5010008034C4FF00000A04712
:10020000024C034DAE46204759100008312A000821
:10021000612A000800F09EBC00F066BC00F074BCCF
:1002200000F088BC01F016B8C44B002102E0C24ABD
:10023000491C13605FF4616242439142F7D37047F7
:1002400070B5164D134E04005FF4C0620021280003
:1002500002F0FCFB03223100280002F0EBFB104807
:100260000322310002F0E6FB9D480C2231000831E8
:1002700002F0E0FB08480422311D02F0DBFBE80C31
:10028000606040082060C7480021017641624183D8
:10029000818370BD302C000816140020001000204F
:1002A000001200202DE9F04FBE4D202452268C492B
:1002B000081928620178E5293CD00178002939D055
:1002C000032188464F21894654218A4645218B4681
:1002D000017A002748292ED1417A45292BD1817AEC
:1002E000582928D15FF47A70FFF79EFF687E2F7639
:1002F00020B1022813D0042809D019E0286A44212B
:100300000672286A4172286A5921817210E0286AAF
:1003100080F808B0286A4672286A867208E0286A5F
:100320004E210172286A80F80990286A80F80AA094
:1003300085F81980CBE0017A412958D1417A4429C6
:1003400055D1817A522952D15FF47A70FFF76CFF50
:100350002F83EF62022704E051F0040068767F1CCF
:10036000BFB2E86A697E0A2F1FD2A64A1278302AE5
:10037000F2D15C4A1278782AEED1A24BDA191378BE
:10038000302B01D33A2B07D3412B01D3472B03D377
:10039000612BE1D3672BDFD20001E862107800F017
:1003A0002FFAE96A0818E862D9E72A6AB1B94E4912
:1003B000884208D24E201072286A80F80990286A74
:1003C00080F80AA010E00120287653201072286AD5
:1003D00080F809B0286A80F80AA005E082F808B021
:1003E000286A4672286A867285F819806FE0017A59
:1003F000422929D1417A492926D1817A4E2923D10E
:100400005FF47A70FFF710FF287E0028286A08D171
:100410004E210172286A80F80990286A80F80AA0A3
:1004200006E044210672286A4172286A59218172C5
:10043000287E022801D12F7603E0012804BF022084
:10044000287685F8198042E0017A532913D1417A40
:10045000452910D1817A54290DD1297E002936D120
:1004600055210172286A53214172286A80F80AB026
:1004700085F819802BE0017A522905D1417A442967
:1004800002D1817A592922D0017A552905D1417AA0
:10049000532902D1817A452919D0017A452905D1FC
:1004A000417A522902D1817A522910D0017A4E29FB
:1004B00005D1417A4F2902D1817A542907D080F899
:1004C00008B0286A4672286A867285F81980203436
:1004D000A4B25FF400718C42FFF4E9AEBDE8F08F86
:1004E00000140020011600200040000810B501F0A3
:1004F0008DF90028FBD1104810490C4C0160C82030
:10050000FFF792FE0A482060C820FFF78DFE0948D9
:10051000206002F03FF823480021027E41624176CC
:1005200041838183022A08BF017610BD040801407F
:10053000BB3B8388BBBB8B880C080140FFE70000F6
:1005400010B5B1F5806F04D101002B485FF4007243
:1005500006E0B1F5206F07D1010028485FF4007272
:10056000BDE8104002F066BAB1F5805F04D1010029
:1005700023485FF40072F3E7B1F5A04F11D3094CA3
:10058000010020485FF4007202F054FA607E40B926
:10059000207E18B900F038F8607610BD00F072F9CE
:1005A000607610BD5C03002011B91249482205E0B5
:1005B000B1F5806F04D110495FF4007202F03ABACD
:1005C000B1F5206F03D10D495FF40072F6E7B1F584
:1005D000805F03D10A495FF40072EFE7B1F5A04FE5
:1005E00003D308495FF40072E8E75FF4007200216A
:1005F00002F02CBAE82B00080010002000120020A6
:1006000000140020001600202DE9F14F7A4C002044
:100610008046C4F828808DE0658385E0007800F08E
:10062000EFF8000160750020A083F5E7007800F086
:10063000E7F850446075A075658375E0007800F0B8
:10064000DFF800012063E7E7007800F0D9F8301800
:1006500020633918A17500022063EDE7007800F0EF
:10066000CFF80001E075D7E7007800F0C9F8E17D28
:1006700065830818E075C0B2311821633818A07579
:1006800052E0007800F0BCF800012075C4E7007863
:1006900000F0B6F8584420753818A07565835046A8
:1006A000002841D1AD1CB7E7007800F0A9F8009907
:1006B00000010870C0E7007800F0A2F800990978FE
:1006C0000818009908703818A075B4F91C00401C6F
:1006D000A08300B25045AFBF65834846401E60838B
:1006E00022E0007800F08CF8658317EB0010C6E775
:1006F000007800F085F83818A075000644D18BE723
:1007000000780D2840D197E700780A283CD10020D6
:100710002076584604283AD120786178090411EBF4
:100720000060606300206083A06A401CA062B0F596
:10073000007F2ED2B4F91C00654920180090A06AF1
:10074000B4F91A90A77D266B0818617D09F201059E
:100750008A46217D8B4649460E29E5D801A24900EB
:10076000525E97441C00B6FEC6FED6FEE2FEF6FEC2
:1007700002FF1CFF28FF42FF50FF7CFF8AFF9AFF09
:10078000A2FF00783A28BAD00420BDE8F28F0128F1
:1007900001D10020F9E70028C4D1606B1749301857
:1007A0002063884201D20220EFE700200EE02118EA
:1007B0000A78497812EB0121226B89B2101800F0F7
:1007C0003DF80428E0D1B4F91C00801CA083B4F9E2
:1007D0001C00617D8842A5DA216B081800F040F802
:1007E000B4F91C00637D421C9A42E0D1215C226B6B
:1007F00051F47F41E2E700BF5C03002000400008A5
:100800000D4A10B585B0010068461124641E135DC1
:100810000355FBD1612902D37B2938BFE031002089
:100820006B461A5CC9B28A4204D0401CC0B2102880
:10083000F7D3002005B010BDD42B000830B504005C
:100840000F480D0001F0D6F905281CBF342001F037
:10085000B9F929002000BDE8304001F091B900004D
:1008600010B5040060050AD1054801F0C3F9052858
:100870001CBF342001F0A6F9200001F05FF910BD83
:10088000A086010030B5104D0024E86A696A40185E
:10089000FFF7E6FF0D490E486A6A095D005D10EB3F
:1008A0000121E86A89B28018FFF7C8FF696A891CCC
:1008B000696204281CBF042030BDA41CB4F5007F6D
:1008C000E3D3002030BD00005C03002001160020AF
:1008D0000016002070B54D4C4B4D227842B92A6865
:1008E0005043606110464143A1610120207001E046
:1008F000012A2ED1464EA06868B961693000FFF721
:1009000053FE40229821300001F082FF28684038D1
:10091000A06040200AE0606840229821301801F071
:1009200077FFA0684038A060606840306060402178
:10093000012002F02DF83021012001F09BFF6069B9
:1009400040306061A0694038A06132488168403918
:100950008160A06930B930490322A06060606061A5
:100960000A70207070BD0000274BF0B5274C0025A1
:10097000E6682278403642B91A685043E061104672
:10098000414321620120207001E0012A2BD1204A3D
:10099000256109E020691A4FE1683F5C401C57540B
:1009A0002061E068401CE060E068B042F2D3154E80
:1009B000E16930880F18216AE761081A1968206216
:1009C00002F054F828B9E5601868391A1000FFF7EA
:1009D000B7FD104832888168891A81605FF4405100
:1009E000022001F059FF206A18B10B480078042852
:1009F00005D1E5600121002000F050FD2570F0BD1B
:100A0000D0030020C60300209C03002038010020F2
:100A10005C01002010040020C40300200D4A70B5C2
:100A20000021D30C950C2F4C1360136013601360DE
:100A3000060654BF156025601360136023602360B1
:100A4000236023604000491CC9B20829EBD313601E
:100A5000156070BD140C01401C49F0B51C4D286890
:100A60000068884231D11B481B490024002340F80C
:100A7000101BC10C0160810C016018495FF48042B9
:100A800002605B1C8B42FBD3164B0027060D7F1CBC
:100A90001E608F42FBD3002706607F1C8F42FBD372
:100AA00000201A60401CB0F5FA5FFAD300262868CF
:100AB000805D761CFFF7B2FF09488642F7D3FF201E
:100AC000FFF7ACFF641C082CF9D3F0BD7EAA997E19
:100AD00000000020040C014088338383D80E0000FE
:100AE000F8090100100C0140044805490068096834
:100AF0004018044909684018704700BFE8F7FF1F15
:100B0000ECF7FF1FF0F7FF1F70B504000D00160093
:100B100000F044F800B970BDFFF7E6FF2A000100BD
:100B2000200000F017F8864204BF012070BD0020AD
:100B300070BD000010B50400FFF7D6FF204A010089
:100B4000204800F007F8844204BF012010BD0020B7
:100B500010BD000070B50A230CE01F249E08B6B239
:100B6000B3EB8605ED0031FA05F5EDB200FB04505C
:100B70005B1C9BB2152BF0D343210CE01F238D0887
:100B8000ADB2B1EB8504E40032FA04F4E4B200FB48
:100B90000340491C89B25129F0D370BD10B5FFF74D
:100BA000A3FF0649064A0C6801000648FFF7D2FF7A
:100BB000844204BF012010BD002010BD043800088D
:100BC000013020D501DEC0DE70470000FEE70000E6
:100BD000FEE70000FEE70000FEE7000070470000AF
:100BE0007047000070470000704700007047000029
:100BF0007047000070470000704700007047000019
:100C00007047000070470000704700007047000008
:100C100070470000704700007047000070470000F8
:100C200070470000704700007047000070470000E8
:100C3000704700007047000001F0AABD00F068BCDA
:100C400070470000704700007047000070470000C8
:100C500070470000704700007047000070470000B8
:100C600070470000704700007047000070470000A8
:100C70007047000070470000704700007047000098
:100C80007047000070470000704700007047000088
:100C90007047000070470000704700007047000078
:100CA0007047000070470000704700007047000068
:100CB0007047000070470000704700007047000058
:100CC0007047000070470000704700007047000048
:100CD000704700007047000070470000084909484D
:100CE000094A5FF02043086008491160084A1A6009
:100CF000084B18600848016008480260704700BF50
:100D0000040000A002071010040100A0010410104C
:100D1000115000000C0000A00C0100A0080000A071
:100D20004B484C494C4A2DE9F041564C40F8041BC5
:100D30004A4955260127016049494A4808604A49FD
:100D400041F8042B5FF0BB3241F8082B0860FFF735
:100D5000C5FFA00C2060450825600120FFF764FA5C
:100D6000474805603220FFF75FFA25605FF0C04416
:100D70006420FFF759FAE92000F078F8202020805D
:100D8000112000F073F86420FFF74EFAD12000F034
:100D90006DF8002525805E20208017202080D0203F
:100DA00000F064F80720208020800C20208036206E
:100DB00000F05CF840208046A4F800800C2000F091
:100DC00055F826803A2000F051F82680C12000F026
:100DD0004DF8102020802080022626802680C0200A
:100DE00000F044F82580352020802580258027804C
:100DF0002680C52000F03AF82780D22000F036F88F
:100E0000278022202080C82000F030F8278073201F
:100E100020803720208025800F20208026800421FC
:100E20002180A4F8008067212180258026802080F1
:100E300008202080802020802580292000F016F8BE
:100E40002C2000F013F800F03DF8BDE8F08100BF61
:100E500000140140BB84BBB8333333B3BB3B33BB5B
:100E60000C140140FFFF000000180140044A5FF429
:100E7000805111605FF0C0421080024801607047ED
:100E8000141401401014014070B55FF0C045040017
:100E90000E002A20FFF7EAFF00202880F1B2298007
:100EA0002880EF2028802B20FFF7E0FF200A2880F1
:100EB000E0B22880012028808F2028802C20BDE8E7
:100EC0007040D3E700B500210020FFF7DDFF0021CF
:100ED0000B465FF0C042491C1380024A9142F8D38E
:100EE00000BD00BF007701002E2801D37B2801D36D
:100EF00000207047034A11EBC000034911EB40008A
:100F0000805A704720FDFFFF442C00082DE9F04770
:100F100088465FF0C044050091469A46FFF7B4FF4B
:100F2000002000212080491C0E29FBDB6D1C02E003
:100F300008350AF2010A9AF8000030B3002641464B
:100F4000A81980B2FFF7A0FF9AF80070B1B238007C
:100F5000FFF7CAFF00B2212F01D1042E13D00021C8
:100F600042075ABF00222280A4F80090C003001458
:100F7000491C0E29F4DB761C36B2082EDFDB9AF80A
:100F800000002128D4D12D1DD3E7BDE8F087000053
:100F90002DE9F04F88B00C000025804681464F4671
:100FA000002115E0284B294E0A0013F8223016F8CC
:100FB00022606846DB08B608760116EBC323244E90
:100FC000491C89B216F82260F6089B1920F81230E5
:100FD0001029E7D330E021003800FFF755FF1D4905
:100FE0007F1CBFB2481982465FF0C04083469AF822
:100FF000000069464646001131F81000FF36BE4237
:10100000ABF80000BEBF4F46641CA4B221003800FC
:10101000FFF73AFF9AF8000069467F1C0007000FAF
:1010200031F81000BFB2BE42ABF80000BEBF4F4661
:10103000641CA4B26D1CADB25FF400518D42CAD3E2
:1010400008B0BDE8F08F00BF36D8030837D80308D2
:1010500038D8030876D80308F1B500F037FE5FF4FE
:10106000803000F053FE00F06DFE012817D11020F3
:1010700000F04AFD022000F041FD5F485F49016039
:10108000012000F075FE392000F090FE0028FAD013
:10109000022000F073FE00F075FE0828FBD15848CE
:1010A0005849594C594D40F8041B594901600020DA
:1010B00000F074FE5748584901605848584901608B
:1010C00058485FF08061016000F02AFD1420FFF7AE
:1010D000ABF855480068400428D5544E5449306850
:1010E0000140B1F1005F21D100F022FDFFF7B4FC17
:1010F000FFF754FD78B9FFF713FE8C214820FFF766
:1011000047FF4C4A2B0078218020FFF7FFFE5FF459
:10111000FA60FFF789F8FFF7D5FE4748006860607E
:101120002060306800F0CEFC2068804700215FF02E
:10113000006000F0BFFD5FF4C06000F073FD14209C
:101140008DF8000001208DF801008DF802008DF867
:101150000300684600F06EFD012713208DF80000A3
:1011600038468DF80100002630008DF802008DF819
:101170000370684600F05EFD01F00CFA08342000B0
:101180002E4CFFF75DF8FFF7CBFD8C214820FFF7D1
:10119000FFFE2B0014335FF4FC625A215020FFF74E
:1011A000B5FE052000F056F803005FF4FC625A21FA
:1011B0005FF48870FFF7AAFE2B003033220046212F
:1011C0005020FFF7A3FE50352B00220032211C4C8B
:1011D0006820FFF79BFE1B48267006601A480670C1
:1011E0001A4806801A480680FFF75CF82078032822
:1011F000FAD1FFF77BF9F7E70410024002841D00E3
:10120000141002401701000094030020143100085C
:101210007DAE00001C1002402F8080200408014099
:10122000BBBB8B8804000140080801400040000857
:101230000000FF2F1F05000004400008FFFF000012
:101240007503002080030020740300207603002033
:101250007803002001000448082902D210EB011095
:1012600070478030704700BF803100087C4800B56F
:1012700090F82010891E0ED0491E15D0491E012954
:101280001BD8002100F8201F5FF4405102205DF8B8
:1012900004EB01F001BBC17B28290ED1816A406AB1
:1012A0005DF804EB00F02EBB0121002000F0F6F801
:1012B0005FF44051022001F0EFFA00BD30B5684CF8
:1012C0000220E57B01F08CFB608402466548D82152
:1012D00001F0B0FA94F8200010B1012803D00AE020
:1012E000BDE8304014E02A2D06D1A16A606ABDE84D
:1012F000304000F033BB022000F0F2F8242105203A
:1013000000F0F8FA00210220BDE83040C6E00000FD
:1013100030B5534C00210025608C03E0514A525CEB
:101320006254491C8142F9D36C4962681F284A60A3
:10133000A2688A6005D0022000F0D2F825601A2148
:1013400025E0E27B282A01D02A2A0FD1607CA17CEB
:10135000090451EA0060E17C50EA0120217D01434B
:10136000A07D6162E17D51EA0020A06220683A49D7
:1013700088426BD13948617B0068884203D3A07BE7
:1013800008B111280BD3022000F0AAF8242105206F
:1013900000F0B0FA0021012000F080F830BD606A52
:1013A000A16A002A43D0032A2CD0082A4BD00A2A4B
:1013B00049D0122A29D0152A45D01A2A2BD01B2A07
:1013C00026D01D2A3FD01E2A22D0232A29D0252A02
:1013D0002AD0282A2ED02A2A2FD02F2A30D0552A98
:1013E00031D05A2A1AD0882A2DD08A2A2BD08F2A77
:1013F00029D09E2A27D0A82A25D0AA2A23D0AF2ACE
:1014000021D023E000F06CFA30BD00F00FFA30BDBF
:1014100000F076FA30BD00F055FA30BD00F058FA11
:1014200030BD00F015FA30BD00F02CFA30BD00F0F0
:10143000DBFA30BD00F066FA30BD00F08FFA30BD47
:1014400000F0BAFA30BD00F0D3FA30BD022000F04F
:1014500047F820219BE700BF55534243200400205A
:10146000A4030020D003002010B50C002200982116
:1014700001F0CEF92100012001F08AFA302101208B
:1014800001F0F8F904480321017014488168091B30
:1014900081600021017310BDC403002010B502005B
:1014A0000E480C000B4902730D220160982101F0D7
:1014B000AFF90D21012001F06BFA0748052180F8F2
:1014C000201034B1042100F8201F3021012001F048
:1014D000D1F910BD55534253A4030020100400203D
:1014E00000B520B101280CD0022806D000BD102183
:1014F00001205DF804EB01F0BDB91021012001F0DD
:10150000B9F95FF4805102205DF804EB01F0C4B931
:1015100070B50B4D0B4C0C4E28682080208831880C
:101520000140480504D509480068804708482860FC
:10153000208831880140080448BF01F03BF870BDA5
:10154000445C004060040020640400205C00002033
:10155000FFFB0000FFF78ABEFFF7B0BE10B500F03A
:101560001FF98E4800240068847200F041F9054894
:10157000054904605FF40440088004490860494854
:10158000046010BD445C004064040020405C0040E6
:101590003148324930B5324D0978002404707F4813
:1015A00000684172002001F055F95FF40071204697
:1015B00001F058F92021204601F05CF9182120465D
:1015C00001F0C6F995F82C10204601F0EDF95821EC
:1015D000204601F0B1F9204601F07EF9204601F0E5
:1015E0006FF92146012001F03DF99821012001F019
:1015F000A3F92021012001F03DF92146012001F04D
:101600004BF92146022001F02DF9D821022001F0EA
:101610009FF995F82C10022001F0C6F95FF44051B3
:10162000022001F039F92146022001F023F915F8D2
:101630002C1F204601F0B8F9204601F041F9204660
:1016400000F088FF174801210160394839490160DD
:101650003948047030BD00BF420400202B3200081E
:10166000580000204D4800B50068807A58B10D48F8
:1016700005210160012001F047F9022001F036F94F
:101680002D480021017000BD29482A4900B5006895
:1016900088421CBF0220FFF723FF00BD0148042140
:1016A000016070472404002070470000704700006C
:1016B0003A4900B509680A785206520E212A0BD120
:1016C000FE2809D1488838B9888828B9C8880128EF
:1016D00002D10648020001D1022000BD886100202D
:1016E000488200F04FF8002000BD00BF85170008B9
:1016F0002A4900B509680A785206520E212A15D1E6
:10170000FF2813D1488888B9888878B9C88868B90B
:10171000012001F0F9F8022001F0E8F80448054939
:101720000160054800210170002000BD022000BDBD
:10173000A403002055534243C403002009B10220F2
:10174000704700B102207047014900F0A1BC00BF02
:10175000AC000020014900F09BBC00BFB400002099
:101760000E4900B50968C978062924BF002000BDCC
:10177000034A12EBC1015DF804EB00F089BC00BF25
:10178000BC00002028B90548012100680182002022
:1017900070470148704700BF200400205404002017
:1017A0000F481049104A10B5006809681268A8B1BE
:1017B0000E4B040A98701C71040C9C71000E187278
:1017C0009972080A1873080C9873080E18749A74A2
:1017D000100A1875100C9875100E187610BD00BF01
:1017E000E8F7FF1FECF7FF1FF0F7FF1F04000020D2
:1017F0000D480C4A01210160002101601160024A7C
:101800005FF4E051118009E06404002006480121E2
:101810000022016003490A60032100BF016000202B
:1018200070470000445C0040405C00407C49087CFC
:10183000C00702D50448052104E0C97C03482529D6
:1018400028BF2421FFF710BE28040020E400002058
:1018500089490B484A68120E02714A68120C42719B
:101860004A68120A82714A68C2710A68120C42728E
:101870000A680968120A8272C1720C21FFF7F4BD6E
:10188000280100207C490E484A68521E120E027040
:101890004A68521E120C42704A68521E120A827026
:1018A0004A68521EC2700A68120E02710A68120C4F
:1018B00042710A680968120A8271C1710AE000BFA8
:1018C0003004002001480421FFF7CEBD08010020AC
:1018D000024800BF0821FFF7C7BD00BF0C01002070
:1018E00003480178132928BF12210448FFF7BCBD23
:1018F000B7030020014A9070117370471401002053
:1019000072E0000070B52A4E04000D003078F0B986
:101910002A002100282000F085F8E8B12548007849
:10192000000607D50220307029002000BDE8704075
:10193000FEF7D0BF0220FFF7D3FD24210520FFF7DB
:10194000D9FF01210120BDE87040FFF7A7BD0228A3
:1019500004BF2046FEF7BEFF70BD000010B5144C5A
:101960002278FAB90A0001002A2000F05BF8E8B1F9
:1019700010480078000608D4012020705FF4405120
:101980000220BDE8104000F087BF0020FFF7A8FD4F
:1019900024210520FFF7AEFF00210120BDE8104003
:1019A000FFF77CBD012A08BFFEF7DEFF10BD000077
:1019B000C4030020B0030020194800B5816829B98C
:1019C000007C400702D40121002008E00220FFF73C
:1019D00087FD24210520FFF78DFF002101205DF800
:1019E00004EBFFF75BBD000001210020FFF756BDAF
:1019F0000B4800B5816809B9002005E0007B0006AE
:101A000001D5002000E00220FFF76AFD202105201B
:101A1000FFF770FF002101205DF804EBFFF73EBDEA
:101A2000A4030020144B10B589185C688C4209D2BD
:101A30002A2804BF0220FFF753FD0020FFF750FDC6
:101A400021210DE00D491B6809685A43914210D0CD
:101A50002A2801D1022000E00020FFF741FD2421C7
:101A60000520FFF747FF00210120FFF717FD0020A9
:101A700010BD012010BD00009C030020AC0300201D
:101A800030BF704720BF704740BF7047BFF36F8FB4
:101A90007047BFF34F8F7047BFF35F8F704701DF11
:101AA0007047EFF31480704780F31488BFF36F8F93
:101AB0007047EFF30980704780F309887047EFF3B0
:101AC0000880704780F30888704762B6704772B626
:101AD0007047EFF31080704761B6704771B670477A
:101AE000EFF31380704780F311887047EFF3128093
:101AF000704740BA704700BA7047000007490A684B
:101B000012F0380204E00000044910230A689A43E6
:101B10000A600A6810430860704700000020024015
:101B200002482549016025490160704704200240B0
:101B30002348016851F080010160704770B51D4D68
:101B40000400280000F056F8042813D11C4E306819
:101B500050F00200306008480460306850F04000E7
:101B60003060280000F046F8012803D03168034AAD
:101B70000A40326070BD00BF14200240FD1F00000B
:101B800070B504000F200D0000F034F804280ED1C9
:101B90000B4E306850F00100306025800F2000F0BF
:101BA00029F8012803D03168014A0A40326070BD2B
:101BB000FE1F0000FF0F000023016745AB89EFCD3A
:101BC000102002400A490860704700000848016878
:101BD000C90744BF012070470168490744BF02207C
:101BE00070470068C00644BF032070470420704758
:101BF0000C20024011B50400FFF7E8FF08E0009850
:101C0000401E009000980028F9D1FFF7DFFF641E06
:101C1000012804D11CB100200090FF20F1E704B995
:101C2000052012BD2849024A02430A60704700009D
:101C30000000FA050100F0B50A78C87858B32248C8
:101C40001A4C9310006814EB8305AC462C684F784F
:101C500010F4E060D0F5E060000A0426351A8E78B2
:101C60009207D20EFF239340AF403D000F27C7409D
:101C700037402F43380190400B4A65469C43034050
:101C800023432B60087801234111C006C00E834016
:101C900042F82130F0BD064950110123D206D20E80
:101CA000934041F82030F0BD00E100E000E400E0A6
:101CB00080E100E0034A024B0B400343136070478E
:101CC00080FFFF1F08ED00E00CED00E042480D4BE7
:101CD000016851F00101016033490A6813400B604B
:101CE0000268094B1340036002687FF480231340AD
:101CF000036008687FF4FE0202403A480A6000214F
:101D0000016070470000FFF8FFFFF6FE32497FF4E4
:101D100080330A6813400B600A687FF48023134005
:101D20000B605FF48032904203D09200904204D066
:101D30007047086850F4803002E0086850F4A02032
:101D40000860704711B500240094312000F02EF88F
:101D50000099491C009118B90098B0F5A06FF4D112
:101D6000312000F023F800B10124200012BD000052
:101D700001490860704700BF600042420A490323DE
:101D800006E000000848006810F00C0070470000F2
:101D90000A689A43104308607047000001490860D0
:101DA000704700BFD8004242041002404109012997
:101DB00002D10949096805E0022919BF08490968E3
:101DC000064909680122C006C00E82400A401CBFB5
:101DD0000120704700207047001002402010024090
:101DE000241002400810024010B5AF4C00B92BE09F
:101DF000A64800680068804720680A3010BD0000CF
:101E0000A9480A4A00B500681278C1788A420AD304
:101E1000827842B9828832B981729C4800684068F1
:101E20008047002000BD022000BD00BF350100201A
:101E300010B59D4C00B907E0944800688068804761
:101E400020680C3010BD00000121206801820020B4
:101E500010BD00000F4A10B5934C126820689269BB
:101E6000C1784079904721688A7A22B118B90879F7
:101E700008B9887808B1022010BD84480068C0689D
:101E8000804720684179C1722068C17801730020C1
:101E900010BD000058040020834910B5096818B926
:101EA00002200882002010BD1F4C002020800878EE
:101EB000420610D1487A810603D5217851F00201FB
:101EC00021704006207803D510F0FE00207025E038
:101ED00050F00100FAE74206520E012A01D120001B
:101EE00010BD4006400E0228DCD1497920780A074F
:101EF000120F50F00100090607D55B4951F8221076
:101F000011F03001102909D1E0E7574951F82210AA
:101F100011F44051B1F5805F08BF20705B48006844
:101F200000698047DBE700BF620400205E4870B5AF
:101F3000006801784906490E04D1417A11F0DF01A9
:101F4000417252E0022903D1418809B9017909B1EE
:101F5000022070BD417980220C0094430A0605D509
:101F6000414A52F8242012F0300204E03E4A52F86E
:101F7000242012F440523B4B1B789C42E8D2002AAA
:101F8000E6D0807A0028E3D0374810EB84050806B5
:101F900028680BD510F03000102822D1200000F066
:101FA000B3FC3021200000F065FC1AE010F4405032
:101FB000B0F5805F15D12D4E5CB90D480178002039
:101FC00000F0F2FC284801680E4096F44051016090
:101FD00007E0200000F08AFC2868064096F4405094
:101FE00028602A48006840698047002070BD0000D2
:101FF000840000202C4810B5802301684879020035
:102000009A43030605D5184B53F8223013F03003DA
:1020100004E0154B53F8223013F44053114C24784C
:10202000A24204D24C8814B90BB1897A09B90220B2
:1020300010BD0D4911EB82010A68000604D508485D
:10204000104090F0100003E00848104090F48050D9
:1020500008600E48006880698047002010BD00BFFE
:10206000BF8F000034010020005C00408FBF0000E3
:102070000D4800B50068417A51F0200141720348D3
:102080000068C0698047002000BD00005C0400209B
:10209000054A1268538A20B98888C01A1082002025
:1020A00070470868C018704754040020F0B5734C9E
:1020B000256835F8100FA9680A0015D0A0B1AE88C0
:1020C000B04238BF06463000884707002888801B8A
:1020D0002880688880196880002000F04FFC32005A
:1020E0000100380000F0A6FB674E2888302738B181
:1020F0003348390201800021002000F049FC37807C
:102100002988AA882068914222BF03210172F0BD6C
:1021100011B105210172F0BD0621017258485949DB
:102120000022006880B241F810203780F0BD000026
:1021300052482DE9F04104248046D8F800000500FB
:1021400035F8101F99B9007A042810D1B0480178E9
:10215000012909D14A4A4B4B0021126892B243F837
:1021600012103022017022E0072410221FE0AE88F6
:102170008E4223D3B14238BF0E46A968300088474B
:102180000700002000F0F0FB32000100380000F0F2
:102190003FFB3100002000F0FBFB288830221102B9
:1021A000801B28806888801968800548018036482F
:1021B0000280D8F800000472BDE8F0810224DCE758
:1021C0006604002070B52D4D0824286801784678F3
:1021D0004A0628D1092E02D1FFF712FE34E0818889
:1021E000C278052E0AD1802A44D28278002A41D1B1
:1021F00000293FD1807A002831D03BE0407A032E7D
:1022000007D1012A21D101BB80061ED5FFF730FF7F
:102210001AE0012E19D1012A17D1B1B9800614D5BF
:10222000FFF784FE10E04806400E012804D10B2E73
:102230000BD1FFF70FFE07E0022806D1012EEFD0E9
:10224000032E02D1FFF7D6FE40B1BD493000096828
:1022500049698847032801D109240BE050B908488F
:10226000084900220068062480B241F81020064880
:10227000302101802868047270BD000054040020E1
:10228000505C00400460004068040020AC4A2DE926
:10229000F143AD4D9046D8F8002028684478037883
:1022A0000926B1465906490E062C0ED100296AD1DD
:1022B0008078012801D1D46954E0022801D1146A40
:1022C00050E003285FD1546A4CE09269C688478881
:1022D000002C33D1002F56D1022E54D10479002C7A
:1022E00051D1474C11B9818800293BD0407959061A
:1022F000490E012908D100219047002843D12868C0
:10230000807A00283FD02DE002293CD10107090F37
:1023100010F07002000605D59C4850F8210010F01E
:10232000300004E0994850F8210010F44050964BDA
:102330001B78994227D232BB28B313E0082C02D174
:1023400009BB304C0EE00A2C1DD101291BD1817A2A
:10235000C9B1C7B90179B1B9012E14D140799047FB
:1023600088B9294C20000ED0286800214182846160
:102370000020A04700212A68244B108A98420FD1E0
:1023800082F8089039E02868D8F800104078096988
:10239000884701000328EED1286880F808902CE0D7
:1023A000022900D010B90820107226E01178090621
:1023B0001DD5D1880091D8F80030009C844202D20B
:1023C000009810820DE088420BD293F82C10104C2C
:1023D000884201D2002003E000F04EFB08B9012042
:1023E000207013F82C0F9082FFF7A2FE05E0032067
:1023F000107256485FF440510180BDE8F18300BF80
:10240000991E0008E91D0008311E0008FFFF0000AA
:102410006A0400201C491A4A1A4830B509684A4C17
:1024200089B252F8111089B210EB41052068017A87
:10243000092917D02978017020686978AD1CAD1C76
:10244000417028000088AD1CAD1C00F0DFFA216847
:10245000488028000088AD1C00F0D8FA21688880E8
:102460006888C8802068012101722068C08810B97E
:10247000FFF7A8FE01E0FFF709FF00F047F830BDC5
:102480000860004000600040505C004010B52E4CD9
:102490002068017A022901D0042904D1FFF748FEFF
:1024A0002068007A13E0062910D14178052909D166
:1024B0000178490606D1C07800F04CF8064800685B
:1024C000006A80471E4800688068804708202168AD
:1024D0000872BDE8104019E05C04002010B51A4CE9
:1024E0002068007A032801D0052804D1FFF7DEFD1B
:1024F0002068007A06E0072803D111480068C06808
:102500008047082021680872BDE810400D4800B5DA
:102510000178002000F048FA0B480068017A082989
:1025200006D10A495FF480520A80094910220A80C4
:10253000007A092804BF012000BD002000BD000072
:102540005804002084000020540400206604002069
:10255000680400200C4970B50022097809E00B4C92
:10256000074ED3B2521C14EB830425682E4033432C
:1025700023608A42F3D3034950F08000086070BDA5
:102580008F8F00004C5C004034010020005C004054
:10259000704700000448054A022101720449C061E5
:1025A0004262016208680047380400208800002069
:1025B000580000208D482DE9F04F924D714E804615
:1025C0008B4881461DE015EB81021768BFB23B04C2
:1025D00008D5136818401060874810EB8100001F71
:1025E0000068804738060CD5207815EB80010A6812
:1025F0001AEA02020A60854911EB8000001F006898
:102600008047D9F80000A8F80000000440F1B88025
:102610007A487B4CC9F80000B8F8000001077A48F6
:10262000090F2170824673480029CCD15649574C76
:102630008B46296811F44051ABF80010296811F05D
:102640003001ABF802102968214091F40051296053
:102650002968314091F020012960B8F80010C906BE
:1026600021D428681AEA00002860FFF70FFF2868C5
:102670000440BBF80000C10448BF94F480548004B7
:1026800002D594F40054A4B22C6028680640BBF82C
:102690000200C10648BF96F0100680066FD596F07E
:1026A0002006B6B26BE02F68BFB2390621D5286884
:1026B0001AEA00002860FFF7E9FE28680440BBF82A
:1026C0000000C10448BF94F48054800402D594F4FF
:1026D0000054A4B22C6028680640BBF80200C10672
:1026E00048BF96F01006800649D596F02006B6B28F
:1026F00045E0390520D5296808402860FFF78AFEA3
:1027000028680440BBF80000C10448BF94F480541A
:10271000800402D594F40054A4B22C6028680640CA
:10272000BBF80200C10648BF96F01006800626D509
:1027300096F02006B6B222E039047FF562AF296830
:1027400008402860FFF7CAFE28680440BBF8000074
:10275000C10448BF94F48054800402D594F400541A
:10276000A4B22C6028680640BBF80200C10648BF2E
:1027700096F01006800602D596F02006B6B22E60BE
:10278000BDE8F08FBF8F0000660400208FBF0000FF
:1027900030B5164C164D09E00A68164B13400B6015
:1027A000154911EB8000001F0068804728682080D1
:1027B00000041AD511481249286020880007000F2C
:1027C0000870104911EB80010A6892B21304E3D437
:1027D0001206EBD50A680C4B13400B600B4911EB4A
:1027E0008000001F00688047E0E730BD60040020E3
:1027F000445C00408F0F00003C000020FF7F000081
:102800006B040020005C00400F8F000020000020BF
:102810000F4B10B5521C13EB4101521008E04478E5
:102820000378801C53EA042321F8023B891C521EC2
:10283000F5D110BD064B521C13EB4101521004E0C0
:1028400051F8043B521E20F8023BF9D170470000BA
:10285000006000405349024A02400A60704700BFCE
:10286000F8FF0000334A024B12EB80005AE000BF31
:102870008F8900002F4A12EB8000104A03681A402B
:10288000CB0648BF92F01002890602D592F02002D2
:1028900092B2026070470000264A12EB80000D4A97
:1028A00003681A40CB0448BF92F48052890402D5D1
:1028B00092F4005292B2026070470000BF8F000095
:1028C0001C4911EB800003490268114091F440510A
:1028D000016070478FBF00001649034A11EB80006A
:1028E00001680A40026070478F8E0000114911EBA9
:1028F00080000168490405D501680D4A0A4052F478
:1029000080410160704700000A4911EB80000168B6
:10291000490605D50168064A0A4052F040010160A7
:1029200070470000026813401943016070470000BF
:102930008F8F0000005C00401A4A49084900126865
:1029400092B212EBC0002C4A42F8101070470000FF
:10295000144A49084900126892B212EBC000274A93
:1029600042F81010704700000E49096889B211EB57
:10297000C000214951F8100080B270470949096828
:1029800089B211EBC0001D4951F8100080B27047A8
:10299000044A126892B212EBC0001B4A42F81010AF
:1029A00070470000505C0040154A126892B212EB6A
:1029B000C000144A12EB40003F2908D34A09C90657
:1029C00004BF521E92B2910251F4004105E04A0840
:1029D000C90744BF521C92B29102016070470000C7
:1029E0000749096889B211EBC000064951F8100087
:1029F0008005800D704700000060004008600040C6
:102A0000505C00400C600040046000400106090C6E
:102A100051EA1020704700007047000010B581B0E7
:102A20000400009469460120FFF7F6FFF9E7000073
:102A300000F016B810B50300002A04E011F8014BAD
:102A4000521E03F8014BF9D110BD0000C9B20300BA
:102A5000002A02E003F8011B521EFBD17047000060
:102A6000014CA646204700001D2A00088C46B0FBFA
:102A7000F1F10CFB110070478C4690FBF1F10CFB5F
:102A80001100704734030000380100203801002095
:102A900036010000000000209C2A000800C0020847
:102AA0001A03530054004D0033003200310030004F
:102AB00000000000000000000000000055150008A4
:102AC000912500089125000891250008912500080E
:102AD0009125000891250008912500085915000846
:102AE00091250008912500089125000891250008EE
:102AF000912500085D15000891150008A916000829
:102B0000AD160008B1160008F11600083D170008C0
:102B10004917000855170008611700080000000059
:102B20004000000091250008651600089125000866
:102B300091250008912500088916000891250008B4
:102B4000912500089D1600081032000812000000B0
:102B50002432000820000000443200080400000075
:102B600048320008260000007032000826000000ED
:102B7000040000201A000000983200081000000035
:102B800000800202200000005665727475616C209E
:102B9000444655204469736B2020202020202020AB
:102BA00020000000030000000006000000000000FC
:102BB000700000000000000A00000000000000009B
:102BC00000000000000000080000000002000000FB
:102BD0000301FFFF30313233343536373839414263
:102BE0004344454600000000EB3C904D53444F5396
:102BF000352E3000020102000200020004F803003A
:102C00000100010000000000284329434F505952A1
:102C10004947485420323031312020652D446573B6
:102C200069676E20436F2E2C4C74642E2020202068
:102C3000F8FFFF00295C643E4446552056335F315F
:102C4000325F430800000000000030003000000048
:102C50000000000030006000C0008001000300069A
:102C6000000C0000E01FF03F902010231024F03FE4
:102C7000E01F0000000010081018F03FF03F1000A7
:102C8000100000007010F030902110231026303812
:102C90003018000020103030102210221022F03F97
:102CA000E01D000000030007000D1019F03FF03F89
:102CB00010010000203E303E102210221023F0238D
:102CC000E0210000E00FF01F103210221022F0036C
:102CD000E001000000300030F020F0210023003E31
:102CE000003C0000E01DF03F102210221022F03FB7
:102CF000E01D0000001C103E102210223022E03F98
:102D0000C01F0000000000000000600C600C00000C
:102D10000000000040004000400040004000400033
:102D200040004000000000018003C006600C301825
:102D300010100000000090009000900090009000A3
:102D40009000000040024002400240024002400267
:102D500040020000000010103018600CC006800314
:102D600000010000C00F201090279024D0275010A1
:102D7000800F0000F007F00F001900310019F00F6C
:102D8000F00700001020F03FF03F10221022F03F2B
:102D9000E01D0000C00FE01F303010201020303048
:102DA000601800001020F03FF03F10203030E01F8E
:102DB000C00F00001020F03FF03F102210273030ED
:102DC000703800001020F03FF03F10220027003044
:102DD00000380000C00FE01F303010211021E0311A
:102DE000F0190000F03FF03F000200020002F03F47
:102DF000F03F0000000000001020F03FF03F1020E6
:102E000000000000E000F00010001020F03FE03F64
:102E1000002000001020F03FF03F0003000FF03CC6
:102E2000703000001020F03FF03F10201000300004
:102E300030000000F03FF03F001C000E001CF03F8F
:102E4000F03F0000F03FF03F001C000E0007F03F95
:102E5000F03F0000C00FE01F303010203030E01F86
:102E6000C00F00001020F03FF03F10220022003E73
:102E7000001C0000E01FF03F102070203020F83FC1
:102E8000E81F00001020F03FF03F00220023F03F39
:102E9000F01C00006018703C102610221023F0393E
:102EA000E0180000000000381030F03FF03F103014
:102EB00000380000E03FF03F100010001000F03F2D
:102EC000E03F0000803FC03F600030006000C03F36
:102ED000803F0000C03FF03F7000C0017000F03F35
:102EE000C03F00003030F03CC00F0003C00FF03C8A
:102EF000303000000000003C103EF003F003103EB4
:102F0000003C00007038F030902110231026303C37
:102F10007038000010003000500090011003100CB9
:102F2000F03F000000080008000800080008000842
:102F3000000800080000000000007CFC8002800205
:102F40000001000100020004000CF01FF03F000C23
:102F50000004000200018000C000E03FF03FC0001C
:102F600080000001102010201020102010201020C0
:102F700010201020E000F00510051005E007F00318
:102F8000100000001020F03FE03F10021002F0039C
:102F9000E0010000E003F007100410041004300604
:102FA00020020000E001F00310061024F03FF03F83
:102FB00010000000E003F0071005100510053007B1
:102FC0002003000000001002F01FF03F102200302C
:102FD00000180000C803EC0724042404FC03F807CD
:102FE000000400001020F03FF03F20020004F00732
:102FF000F0030000000000001004F037F03710006C
:1030000000000000000018001C000404FC37F83722
:10301000000400001020F03FF03F8021C003700644
:1030200030040000000000001020F03FF03F1000CE
:1030300000000000F007F0070006F0030006F007AC
:10304000F00700000004F007F00300040004F0079C
:10305000F0030000E003F007100410041004F00770
:10306000E00300000404FC07FC0344044004C00720
:10307000800300008003C00740044404FC07FC03F5
:10308000040400001004F007F0031006000400061A
:103090000003000000002002300790059004F006B5
:1030A0006002000000040004E01FF03F1004300440
:1030B00020000000E007F00710001000E007F00714
:1030C000100000000000C007E00730003000E007FB
:1030D000C0070000E007F0073000E0003000F00714
:1030E000E007000010043006E003C001E0033006F2
:1030F000100400008007C407440044004400F8079F
:10310000F007000030067006D00490051007300666
:1031100030040000535953204C6963656E63652089
:103120006572726F720000004465766963652046BF
:1031300069726D7761726520557067726164652090
:1031400000000000506C6561736520436F7079204A
:10315000486578206F722042696E2046696C652050
:10316000746F000054686520444655205669727497
:1031700075616C20555342204469736B0000000058
:1031800056322E3732000000000000000000000020
:1031900053544D3332463130335643000000000063
:1031A000494C49393332370000000000000000006C
:1031B0004144393238382D3430000000000000001E
:1031C00049434536354C3034000000000000000013
:1031D00056332E3132430000000000000000000092
:1031E00030000000000000000000000000000000AF
:1031F000384D4220496E7465726E616C00000000AB
:103200002D2D2D2D2D2D00000000000000000000B0
:103210001201000200000040830420570002010256
:103220000301000009022000010100C0320904006E
:10323000000208065004070581024000000705024D
:1032400002400000040309042603530054004D000B
:103250006900630072006F0065006C006500630028
:10326000740072006F006E0069006300730000005C
:103270002603530054004D003300320020004D005F
:103280006100730073002000530074006F0072002F
:103290006100670065000000100353005400200027
:1032A0004D00610073007300FFFFFFFFFFFFFFFF92
:1032B000FFFFFFFFFFFFFFFFFFFFFFFFFFFFFFFF1E
:1032C000FFFFFFFFFFFFFFFFFFFFFFFFFFFFFFFF0E
:1032D000FFFFFFFFFFFFFFFFFFFFFFFFFFFFFFFFFE
:1032E000FFFFFFFFFFFFFFFFFFFFFFFFFFFFFFFFEE
:1040000020160020A18F0008C98C0008CB8C000866
:10401000CD8C0008CF8C0008D18C00080000000077
:10402000000000000000000000000000D58C000827
:10403000D38C000800000000D78C0008D98C000841
:10404000DB8C0008DD8C0008DF8C0008E18C0008A8
:10405000E38C0008E58C0008E78C0008E98C000878
:10406000EB8C0008ED8C0008EF8C0008F18C000848
:10407000F38C0008F58C0008F78C0008F98C000818
:10408000FB8C0008FD8C0008FF8C0008018D0008E7
:10409000058D0008098D00080B8D00080D8D0008A6
:1040A0000F8D0008118D0008138D0008158D000874
:1040B000178D0008198D0008F58D0008F78D000890
:1040C000F98D0008FB8D0008FD8D0008FF8D0008AC
:1040D000018E0008038E0008058E0008078E000878
:1040E000098E00080B8E00080D8E00080F8E000848
:1040F000118E0008138E0008158E0008178E000818
:10410000198E00081B8E00081D8E00081F8E0008E7
:10411000218E0008238E0008258E0008278E0008B7
:10412000298E00082B8E00082D8E00082F8E000887
:10413000FFFFFFFFFFFFFFFFFFFFFFFFFFFFFFFF8F
:10414000FFFFFFFFFFFFFFFFFFFFFFFFFFFFFFFF7F
:10415000FFFFFFFFFFFFFFFFFFFFFFFFFFFFFFFF6F
:10416000FFFFFFFFFFFFFFFFFFFFFFFFFFFFFFFF5F
:10417000FFFFFFFFFFFFFFFFFFFFFFFFFFFFFFFF4F
:10418000FFFFFFFFFFFFFFFFFFFFFFFFFFFFFFFF3F
:10419000FFFFFFFFFFFFFFFFFFFFFFFFFFFFFFFF2F
:1041A000FFFFFFFFFFFFFFFFFFFFFFFFFFFFFFFF1F
:1041B000FFFFFFFFFFFFFFFFFFFFFFFFFFFFFFFF0F
:1041C000FFFFFFFFFFFFFFFFFFFFFFFFFFFFFFFFFF
:1041D000FFFFFFFFFFFFFFFFFFFFFFFFFFFFFFFFEF
:1041E000FFFFFFFFFFFFFFFFFFFFFFFFFFFFFFFFDF
:1041F000FFFFFFFFFFFFFFFFFFFFFFFFFFFFFFFFCF
:1042000004F009BD04F014BE00F0DCB800F0E1BA1F
:1042100071E070E000F020BB00F033BB00F0F3BBB6
:1042200076E075E091E090E099E098E066E065E086
:1042300078E077E0A3E075E003F02BBD58E057E0AD
:1042400050E04FE051E050E000F025BB00F028BF07
:1042500001F08DB901F09CB904F0FFB804F077B912
:1042600003F015B903F02EB900F092BA03F012BEB4
:1042700003F0AFBD03F098BD02F095BF02F09CBF04
:1042800021E020E026E025E003F04DBA03F013BA68
:1042900003F059B903F06EB903F083BA00E0FFE709
:1042A0003F4B47F28152DA611A6A002AFCD147F289
:1042B0008052DA6140F2C9021A625862996247F28A
:1042C0008152DA6170474FF00500364B1B68002BB6
:1042D00007D170474FF00000324B1B68002B00D114
:1042E00070471847304B1B681847304B1B681847FE
:1042F0002F4B1B6818472F49088070472849C86909
:10430000012240EA0200C861086A0028FCD1704717
:1043100029498868012240EA02008860C8680028AC
:10432000FCD170471E4B47F2C152DA611A6A002A6B
:10433000FCD147F2C052DA6140F2C9021A625862F7
:10434000996247F2C152DA6170471B4B45F29052B5
:104350009A605861D96045F291529A607047164B45
:1043600045F211529A60DA68002AFCD145F21052E7
:104370009A605861D96045F211529A6070470F49AE
:1043800040F220020E4B4A6118884FEA00400A6151
:10439000198808447047FBF745BFFBF743BF00008F
:1043A0000000024034000008280000082400000833
:1043B00020000008000000600004024000100140DE
:1043C0000000006480B5DFF8D8064FF4805101602A
:1043D0004FF400610160012000F0F5F9DFF8C40638
:1043E0004FF40061016000F095F9DFF8B4064FF476
:1043F00000610160322000F0E6F900F0AAF900F057
:1044000026FA7CD1E92000F09AF94FF0C040202133
:104410000180112000F093F900F07AF9D12000F02A
:104420008EF900F00FFA5E21018017210180D02063
:1044300000F085F94FF0C0400721018001800C2178
:104440000180362000F07BF94FF0C0404021018010
:104450000C2000F074F94FF0C040552101803A2043
:1044600000F06DF94FF0C04055210180C12000F0EF
:1044700066F94FF0C0401021018000F042F9018040
:10448000C02000F05CF900F0DDF935210180002149
:1044900001800180012100F034F9C52000F04FF9BE
:1044A00000F03AF9D22000F04AF900F035F9222163
:1044B0000180C82000F043F900F02EF9732101803B
:1044C00037210180002101800F2100F01AF9042119
:1044D00001804021018067210180002100F011F955
:1044E0000F210180082101808021018000210180AD
:1044F000292000F024F92C20BDE802401FE1002112
:10450000002000F00EF900F000F900F0FEF800F0D5
:10451000FCF800F0FFF801214FF4C06000F001F951
:1045200000F0F8F840214FF4DE6000F0FAF800F0F7
:10453000F1F84FF4C4414FF4806000F0F2F840F617
:104540000801082000F0EDF84FF48071012000F020
:10455000E8F84FF48071022000F0E3F830210320E6
:1045600000F0DFF80121092000F0DBF800210C2029
:1045700000F0D7F84FF40041902000F0D2F800216D
:104580000F2000F0CEF81621102000F0CAF840F2FB
:104590000111112000F0C5F80021122000F0C1F82F
:1045A0000121132000F0BDF84FF44C714FF48070DE
:1045B00000F0B7F840F2372140F2011000F0B1F8F6
:1045C0004FF4706140F2031000F0ABF84FF4D641A5
:1045D0004FF4207000F0A5F84CF2B0114FF4817048
:1045E00000F09FF800F094F84FF440614FF44070F1
:1045F00000F097F845F60B2140F2013000F091F8F9
:1046000040F6061140F2023000F08BF841F217013B
:1046100040F2033000F085F84FF40C514FF4417034
:1046200000F07FF84FF4B85140F2053000F079F80F
:1046300046F2093140F2063000F073F840F60941C5
:1046400040F2073000F06DF841F20C014FF4427077
:1046500000F067F842F2322140F2093000F061F8D0
:1046600000214FF4047000F05CF8EF2140F21120BB
:1046700000F057F8002140F2122000F052F840F20A
:104680008F1140F2132000F04CF800214FF4A0608D
:1046900000F047F8002140F2015000F042F80521F7
:1046A00040F2025000F03DF8012140F2014000F0DC
:1046B00038F8002140F2044000F033F800F028F808
:1046C0004FF48071072000F02CF800F021F8002151
:1046D0004FF4007000F025F8002140F2012000F0B6
:1046E00020F8DFF8C0034FF4805101604FF0C04064
:1046F00040F202210180DFF8A8034FF480510160ED
:1047000001BD01800221018070470021084608E0B8
:10471000642058E00A2056E04FF0C040012101809B
:104720007047DFF880234FF4805313604FF0C0428E
:104730001080DB4803604FF0C04001807047D949CA
:104740004FF480520A604FF0C0410880D4480260A4
:10475000704780B5EF20FFF7F2FF4FF0C0400088B0
:104760004FF0C04000884FF0C04109884FF0C04270
:1047700012880906090A41EA0060D1B240EA012024
:104780004FF0C0410988C9B20843C749086001BD5C
:1047900010B5C5480068C54988420CD12E20FFF7E6
:1047A000CEFF4FF0C04000884FF0C04004882C205E
:1047B000FFF7C5FF05E04FF0C04000884FF0C04054
:1047C0000488204610BDBA49088008880028FCD11A
:1047D000704738B504460D46FFF722FD00F037F864
:1047E0001BD12A20FFF7ABFF00F02CF8E8B24FF006
:1047F000C0410880084600210180EF2101802B2064
:10480000FFF79DFF00F05CF90846012101808F2130
:1048100001802C20BDE8324091E729464FF400701A
:10482000FFF77FFF00F048F99E484FF48051016088
:104830004FF0C04040F20221018099484FF480516E
:10484000016031BD4FF0C0400021018070479648A3
:10485000006896498842704780B5964908800021D3
:104860000020FFF7B6FF4BF680319248FFF7DCFCE3
:10487000FFF7D6FC4BF680318E48BDE80440FFF7C9
:10488000D3BC01EBC0000FF2482101EB4000A0F5C2
:104890000870008870472DE9F84F05468846914614
:1048A0001E46FFF796FF0E240EB9002002E0012EEF
:1048B00002D14846FFF7ACFC641EF5D105F1010AB0
:1048C0000A9C02E00AF1080A641C2078002836D00D
:1048D0000025414605EB0A0080B2FFF77AFF2078F9
:1048E000202808BF00270CD0212808BF002706D0A9
:1048F000A9B2FFF7C6FF07462078212801D1042D71
:104900001AD04FF00E0B780703D53EB1012E08D117
:1049100000E00EB9002002E0012E02D14846FFF768
:1049200077FC38044714BBF1010BECD16D1C082D4A
:10493000CFDB20782128C5D10AF1040AC4E7BDE8FD
:10494000F18FF0B589B004460D462646002081005F
:1049500001F1006101F5763191F83610C90800F0D7
:104960004CF892F837209208520102EBC12100F076
:1049700044F892F8382011EBD20100AA22F8101066
:10498000401C1028E3DB0027A9B23046FFF721FFC7
:1049900007F1006000F5763090F87600001100A96C
:1049A00031F810004FF0C0410880761C04F1FF0080
:1049B000B6B2B042BCBF26466D1CA9B23046FFF766
:1049C00008FF07F1006000F5763090F8760000F0FF
:1049D0000F0000A931F810004FF0C0410880761C8C
:1049E00004F1FF00B6B2B042BCBF26466D1C7F1C6E
:1049F000B7F5005FC8DB09B0F0BD820002F10062CC
:104A000002F576327047F8B504460D4616461F4645
:104A1000FFF71DFF19D12A20FFF791FE300A4FF052
:104A2000C0410880F0B20880380A0880F8B20880D7
:104A30002B20FFF784FE00F043F8280A0880E8B234
:104A400008802C20BDE8F24079E6394640F211207A
:104A5000FFF767FE294640F21320FFF762FE31465A
:104A60004FF40470FFF75DFE214640F21220FFF77D
:104A700058FE31464FF40070FFF753FE00F01CF86B
:104A800008484FF4805101604FF0C04040F20221CD
:104A9000018003484FF480510160F1BD0000000027
:104AA00010140140141401407014002027930402D4
:104AB0003C14002086140020214640F2012030E6FC
:104AC000200A4FF0C0410880E0B208807047000023
:104AD0000000000000001C002000400040004000DA
:104AE0004000400020001C0000000000000000000A
:104AF00000000000000000E00010000800080008AE
:104B0000300C600CC000800100033006300C000047
:104B100000080008001000E0000000000000000095
:104B2000102010201020102010201020F03F000036
:104B300000000000C00FE01F303010200000000017
:104B40000000000010203030E01FC00F0000000007
:104B50000000C018800D00070007800DC01800007D
:104B6000000000010001C007C007000100010000B3
:104B7000000000000000FCFF00000000000000003A
:104B8000000000010001000100010001000100001F
:104B900000000000000030003000000000000000B5
:104BA00030006000C000800100030006000C00001F
:104BB000E01FF03F902010231024F03FE01F000082
:104BC000000010081018F03FF03F10001000000027
:104BD0007010F0309021102310263038301800006B
:104BE00020103030102210221022F03FE01D000073
:104BF00000030007000D1019F03FF03F1001000006
:104C0000203E303E102210221023F023E02100002D
:104C1000E00FF01F103210221022F003E00100001C
:104C200000300030F020F0210023003E003C000066
:104C3000E01DF03F102210221022F03FE01D000086
:104C4000001C103E102210223022E03FC01F000046
:104C5000000000000000600C600C0000000000007C
:104C60004000400040004000400040004000400044
:104C7000000000018003C006600C30181010000016
:104C800000009000900090009000900090000000C4
:104C90004002400240024002400240024002000046
:104CA000000010103018600CC006800300010000E6
:104CB000C00F201090279024D0275010800F0000A4
:104CC000F007F00F001900310019F00FF007000095
:104CD0001020F03FF03F10221022F03FE01D0000B6
:104CE000C00FE01F3030102010203030601800005E
:104CF0001020F03FF03F10203030E01FC00F0000C8
:104D00001020F03FF03F10221027303070380000A4
:104D10001020F03FF03F1022002700300038000044
:104D2000C00FE01F303010211021E031F0190000D9
:104D3000F03FF03F000200020002F03FF03F0000B1
:104D4000000000001020F03FF03F102000000000A5
:104D5000E000F00010001020F03FE03F00200000D5
:104D60001020F03FF03F0003000FF03C70300000D7
:104D70001020F03FF03F1020100030003000000005
:104D8000F03FF03F001C000E001CF03FF03F000021
:104D9000F03FF03F001C000E0007F03FF03F000026
:104DA000C00FE01F303010203030E01FC00F000077
:104DB0001020F03FF03F10220022003E001C0000B7
:104DC000E01FF03F102070203020F83FE81F000067
:104DD0001020F03FF03F00220023F03FF01C0000C5
:104DE0006018703C102610221023F039E0180000E3
:104DF000000000381030F03FF03F10300038000065
:104E0000E03FF03F100010001000F03FE03F0000D6
:104E1000803FC03F600030006000C03F803F000026
:104E2000C03FF03F7000C0017000F03FC03F000085
:104E30003030F03CC00F0003C00FF03C30300000B9
:104E40000000003C103EF003F003103E003C000068
:104E50007038F030902110231026303C703800005C
:104E600010003000500090011003100CF03F0000C3
:104E700000080008000800080008000800080008F2
:104E80000000000000007CFC8002800200010001A4
:104E900000020004000CF01FF03F000C00040002B0
:104EA00000018000C000E03FF03FC0008000000132
:104EB0001020102010201020102010201020102072
:104EC000E000F00510051005E007F00310000000F9
:104ED0001020F03FE03F10021002F003E00100005C
:104EE000E003F00710041004100430062002000054
:104EF000E001F00310061024F03FF03F1000000026
:104F0000E003F0071005100510053007200300002E
:104F100000001002F01FF03F1022003000180000C7
:104F2000C803EC0724042404FC03F8070004000071
:104F30001020F03FF03F20020004F007F0030000D3
:104F4000000000001004F037F037100000000000EF
:104F5000000018001C000404FC37F83700040000AF
:104F60001020F03FF03F8021C003700630040000A5
:104F7000000000001020F03FF03F10000000000093
:104F8000F007F0070006F0030006F007F007000046
:104F90000004F007F00300040004F007F003000031
:104FA000E003F007100410041004F007E003000011
:104FB0000404FC07FC0344044004C0078003000011
:104FC0008003C00740044404FC07FC030404000001
:104FD0001004F007F00310060004000600030000B0
:104FE00000002002300790059004F00660020000E7
:104FF00000040004E01FF03F100430042000000013
:10500000E007F00710001000E007F00710000000B4
:105010000000C007E00730003000E007C0070000D4
:10502000E007F0073000E0003000F007E007000084
:1050300010043006E003C001E00330061004000055
:105040008007C407440044004400F807F00700004C
:1050500030067006D00490051007300630040000BA
:1050600080078004F03C1020D02FD02FD02FD02FDD
:10507000D02FD02FD02FD02FD02FD02FD02FD02F38
:10508000D02FD02FD02FD02FD02F1020F03F0000C6
:1050900080078004F03C10201020102010201020E9
:1050A00010B50C46222800F23D82DFE810F0230004
:1050B000360049004C0052005C00650078007B001F
:1050C000A100B300AA003101B701CF01D201D5017F
:1050D000E501E901F801FB013B023B023B023B0217
:1050E0003B023B023B023B023B023B020C023B0207
:1050F0003B023302B4F5803F07D2DFF84C064FF491
:10510000EB710160C4F5E17004E0200CDFF83816A3
:105110000860A0B2DFF83416FAE1B4F5803F07D298
:10512000DFF824064FF4EB710160C4F5E17004E090
:10513000200CDFF814160860A0B2DFF81416E7E1BF
:10514000DFF810069AE16008C0F16400DFF8081685
:10515000DEE1DFF80806006804F0010140EA815052
:10516000DFF8F815D4E1002C19BFDFF8F4050821A9
:10517000DFF8F0050821A4E1012C06D1DFF8E805ED
:1051800002210160DFF8E4059BE1002C40F0CD81B5
:10519000DFF8CC0510210160DFF8C80591E1DFF8E8
:1051A000D0056BE144B9DFF8CC0500210160DFF8E0
:1051B000C805DFF8C81584E1012C08D1DFF8B40573
:1051C00000210160DFF8B005DFF8B41579E1DFF800
:1051D000A805DFF8B0150160DFF89805032101602C
:1051E000DFF8A4050460601C4008DFF8A0158FE11B
:1051F000012C19BFDFF898050121DFF8980501217E
:105200005FE1012C19BFDFF888052021DFF8840554
:10521000202156E1082CB9D8DFE814F00900150068
:10522000250035003C004800580068006B00DFF89E
:10523000600510210160DFF830054FF40071016056
:10524000DFF84C0560E0DFF8480510210160DFF869
:1052500018054FF400710160DFF838050421016082
:10526000DFF82C0552E0DFF8280510210160DFF897
:10527000F8044FF400710160DFF8140504210160A7
:10528000DFF8100542E0DFF8080510210160DFF8C3
:10529000D80434E0DFF8FC0410210160DFF8CC040E
:1052A0004FF400710160DFF8E8042DE0DFF8E4045A
:1052B00010210160DFF8B4044FF400710160DFF8E1
:1052C000D40404210160DFF8C8041FE0DFF8C4043F
:1052D00010210160DFF894044FF400710160DFF8E1
:1052E000B00404210160DFF8AC040FE0DFF8A4048F
:1052F00001E0DFF89C0410210160DFF870044FF436
:1053000000710160DFF88C04042101600821D8E0FD
:10531000082C00F20A81DFE814F0090015002600CD
:1053200037003F004B005C006D007000DFF8300478
:105330004FF400510160DFF8580440210160DFF8AC
:10534000200465E0DFF818044FF400510160DFF835
:10535000400440210160DFF80C044FF480410160FB
:10536000DFF8FC0357E0DFF8F8034FF40051016069
:10537000DFF81C0440210160DFF8E4034FF48041B2
:105380000160DFF8E00346E0DFF8D4034FF400519A
:105390000160DFF8FC0337E0DFF8C8034FF4005189
:1053A0000160DFF8F00340210160DFF8B4032FE073
:1053B000DFF8B0034FF400510160DFF8D80340215B
:1053C0000160DFF8A0034FF480410160DFF8900333
:1053D00021E0DFF890034FF400510160DFF8B403DF
:1053E00040210160DFF878034FF480410160DFF86D
:1053F000740310E0DFF86C0301E0DFF864034FF49E
:1054000000510160DFF88C0340210160DFF8540394
:105410004FF4804101604FF4004152E0DFF878031F
:10542000DFF878130160DFF8780380210160DFF88E
:105430007403DFF874130160DFF870030121016069
:10544000DFF86C030460DFF86C0339E0DFF8680311
:1054500014E0DFF8680311E0DFF864030460DFF8AC
:105460004403006840F48020CE490860DFF844031C
:1054700084210160CD4813E0DFF84803046054E064
:10548000C548006820F07060C3490860086840F0B3
:1054900030600860CC480460C148812111E0CB48ED
:1054A00000210EE0012C06D1C9484FF400510160E3
:1054B000C848842105E0C8484FF400510160C54840
:1054C0008521016031E0C548006820F07060C34963
:1054D0000860086840F080700860A4484FF480417C
:1054E00000F027F8A04800F022F8A04800F01FF8CC
:1054F0009D484FF4804101600220FFF764F9B748EE
:10550000006820F07060B5490860086840F00060ED
:1055100008600AE0E1B2222000F029F82104090E17
:10552000232000E0E1B200F022F8002010BD4FF48B
:10553000806101600120FFF746B9A94940220A6055
:10554000002100FA01F212064CBFA54AA54A8023A9
:105550001360A44A40231360A14A1360491C082920
:10556000EFD3A0488021016003601160704710B53F
:105570000C467B4920220A6000F01F00FFF7DDFF88
:105580007848202101602046BDE81040D5E70000A2
:10559000F8B50C46122800F2D580DFE800F00A18B2
:1055A0001121336F747B7E8184878BA59CAAB82AD6
:1055B00093006C48202101604FF0C8400088F2BD84
:1055C0006848202101604FF0C840008858E06548D5
:1055D000202101604FF0C8400088C0F30010F2BDE8
:1055E0006048202101604FF0C8400088C0F3C0002F
:1055F000F2BD5C48202101604FF0C8400088C0F334
:105600004010F2BD7848006878490968774A126806
:10561000764B1B68744C2468744D2D68734E366845
:10562000714F3F68DFF8C8C1DCF800C0DFF8C0E1A7
:10563000DEF800E000F4804001F4806140EAC1003F
:10564000510801F48071084303F4807140EA41007D
:10565000E10801F480610843690801F4006108432E
:1056600006F4006140EA410007F4004108430CF0F1
:10567000080108430EF040010843F2BD5C48006891
:10568000C0F38000F2BD5B4800684FF4AF6148434F
:10569000800AF2BD0FF2A410F2BD0FF25420F2BD49
:1056A0000FF27C10F2BD0FF26440F2BD5248006868
:1056B000C00BF2BD50480068000A00F0010080F005
:1056C0000100F2BD0720FEF766FE017800293AD1FD
:1056D0000FF23C10F2BDFEF7D3FD0178562901D13F
:1056E000002830D14548F2BDFEF7CCFD58BB4448F8
:1056F000F2BD44483CB30178642283780A246343B2
:1057000002FB0131C07840183F490818F2BD154826
:10571000202101604FF0C8400088850929463B4898
:1057200000F094FA394880783849087008462E21EC
:105730004170C17881700179C1700021017114B18B
:105740002846F2BD0020F2BD2C0C0040340C004075
:10575000380C00403434014038340140083C0140EA
:105760001010014014100140100C0140140C0140B5
:10577000282C0140202C01400410024002841D040A
:1057800002841D0702841D002C2C0140342C014092
:105790001018014014180140000C014038B4BB340B
:1057A0000008004000080140BB11101100740040C7
:1057B0002C140040001400405004024048040240F1
:1057C000280800402C080040340800401004004025
:1057D00014140140002C014010140140040C01403D
:1057E0001008014014080140080801400810014059
:1057F000081401404C3C0140080C01400401002009
:10580000FC000020AC8F000830EBFFFFF40000200C
:10581000324D4220496E7465726E616C000000006A
:105820009001F000070015000F00C80000100100F3
:1058300001011100000000040000000435306D5625
:10584000000000000000000400000004D007000079
:10585000302E31560000000000000004000000045B
:10586000A00F0000302E325600000000FEFF0004A2
:10587000FAFF0004401F0000302E355600000000E3
:10588000FFFF0004FAFF0004204E000020315620E4
:105890000000000000000004FAFF0004409C00002B
:1058A0002032562000000000FEFF0004FAFF000432
:1058B000803801002035562000000000FFFF000462
:1058C000FAFF0004400D0300213130562100000092
:1058D00000000004FAFF0004801A06000000000027
:1058E00000000000000000000000000000000000B8
:1058F0002120315320210000E7035F09B004000498
:1059000055A0FC013530306D53000000E703AF04B3
:10591000580200042B50FE003230306D530000005E
:10592000E703DF01F0000004ABB965003130306DF2
:1059300053000000E703EF0078000004D5DC3200DC
:105940002135306D53210000E70377003C0000044F
:105950006B6E19002132306D532100006300DF01AE
:10596000F00000042B2C0A002131306D532100007F
:105970006300EF00780000041516050020356D5314
:1059800020000000630077003C0000040B8B020045
:1059900020326D53200000000900DF01F0000004F8
:1059A0006B04010020316D53200000000900EF005E
:1059B0007800000435820000353030755300000057
:1059C000090077003C0000041B41000032303075B4
:1059D000530000000000DF01F00000040B1A00007B
:1059E00031303075530000000000EF0078000004F3
:1059F000050D0000213530755321000000007700AF
:105A00003C00000483060000213230755321000061
:105A100000002F00180000049B02000021313075A7
:105A200053210000000017000C0000044D0100008D
:105A3000203575532000000000000B000600000414
:105A4000A700000020327553200000000000040071
:105A50000300D703430000002031755320000000ED
:105A6000000002000200330321000000302E3575D3
:105A70005300000000000100010066021100000058
:105A8000302E327553000000000000000100EC01D0
:105A900007000000302E31755300000000000000A8
:105AA0000100F60003000000203275532B000000B7
:105AB000000009000300D7034300000020317553A4
:105AC0002B000000000004000200D70321000000AA
:105AD0002E3575532B000000000002000100330337
:105AE000110000002E3275532B0000000000010051
:105AF0000100D703070000002E3175532B00000072
:105B0000000000000100EB01030000003C5674009F
:105B10000000000000003C5674000000000001027C
:105B20003C5674000000000002043C567400000063
:105B3000000003063E5674000000000000013E56BF
:105B400074000000000001033E56740000000000D5
:105B500002053E5674000000000003073A215C2154
:105B60000000000000083A215C2100000000010A4A
:105B70003A215C2100000000020C3A215C21000067
:105B80000000030E3A215E210000000000093A21C6
:105B90005E2100000000010B3A215E2100000000A0
:105BA000020D3A215E2100000000030F3C544C001E
:105BB0000000000000103C544C00000000000112E6
:105BC0003C544C000000000002143C544C00000007
:105BD000000003163E544C000000000000113E542B
:105BE0004C000000000001133E544C000000000077
:105BF00002153E544C000000000003173C544800BE
:105C00000000000000183C54480000000000011A89
:105C10003C54480000000000021C3C5448000000B6
:105C20000000031E3E5448000000000000193E54CE
:105C3000480000000000011B3E5448000000000026
:105C4000021D3E54480000000000031F42F2107283
:105C500091FBF2F23032027042F2107291FBF2F2DA
:105C600042F2107303FB121189B24FF47A7291FB66
:105C7000F2F2303200F8012F4FF47A7291FBF2F217
:105C80004FF47A7303FB121189B2642291FBF2F292
:105C9000303200F8012F642291FBF2F2642303FBFF
:105CA000121189B2FFE70A2291FBF2F2303200F8BA
:105CB000012F0A2291FBF2F20A2303FB1211303169
:105CC00000F8011F002100F8011F70470A0F0A2A7F
:105CD0002CBF3732303200F8012B090109090A0EB6
:105CE0000A2A2CBF3732303200F8012B0902090A88
:105CF0000A0D0A2A2CBF3732303200F8012B090373
:105D0000090B0A0C0A2A2CBF3732303200F8012B5B
:105D100089B20A0B0A2A2CBF3732303200F8012B25
:105D20000905090D0A0A0A2A2CBF3732303200F859
:105D3000012BC9B20A090A2A2CBF3732303200F8C7
:105D4000012B01F00F010A292CBF3731303100F847
:105D5000011B00210170704710B5002400210420B0
:105D6000FFF716FCC04380B22649098830EA0101DA
:105D700021D0254A19231370CA0548BF03248A0578
:105D800048BF04244A0548BF05240A0548BF062425
:105D9000CA0448BF07248A0448BF02244A0448BFF3
:105DA00001240A0448BF08240A0748BF09244906F9
:105DB0001CD50A241AE013490988084216D0124952
:105DC0000978002902BF1149097800290ED141053F
:105DD00048BF0524010548BF0624010748BF092420
:105DE000010448BF0824094905220A7005490880B2
:105DF000204610BD064A118001460320FFF750B926
:105E00000000000084140020351400203614002007
:105E10004214002080B500B936E000F0BEF80068FA
:105E20008047DFF8480900680A3002BD80B5DFF816
:105E300040094078DFF834190968C978884215D3D9
:105E4000DFF8280900688078002801BFDFF81C0906
:105E500000688088002809D100F0A9FAC178817211
:105E600000F09BF840688047002002BD022002BD80
:105E700080B500B908E000F090F880688047DFF84E
:105E8000EC0800680C3002BDDFF8E0080068012172
:105E90000182002002BD80B500F089FAC17800F0CF
:105EA00099FBDFF8C8180968897AE1B1002801BFB9
:105EB000DFF8B80800680079002814D1DFF8AC08D2
:105EC0000068807878B900F068F8C0688047DFF82B
:105ED0009C0800684179C172DFF890080068C178B9
:105EE0000173002002BD022002BD80B530B9DFF889
:105EF0007C08006802210182002002BDDFF87408DE
:105F000000210180DFF86408006800787F210842E2
:105F1000DFF8580800681BD1407A810605D50021BA
:105F200041F00201DFF84C2811704006DFF8440808
:105F3000007854BF40F0010000F0FE00DFF8341894
:105F4000087000F02AF800698047DFF8280802BDD1
:105F5000007800F07F000128F7D0DFF81008006813
:105F6000007800F07F000228C6D100F020FA4079C6
:105F700000F00F010006DFF8000850F8210007D5F7
:105F800000F030001028DCD1002040F00100D5E7FF
:105F900000F44050B0F5805FF5E7DFF8E0070068F7
:105FA000704710B5DFF8C4070068007810F07F0074
:105FB0000AD1DFF8B8070068407A00F0DF00DFF8A8
:105FC000AC170968487264E0022801BFDFF89C073B
:105FD0000068408800285ED1DFF8900700680079EB
:105FE000002858D1DFF88817DFF88007006840796B
:105FF00020F080040206DFF8802752F824204CBFEE
:1060000002F0300202F4405209788C4243D2002A56
:106010001FBFDFF858170968897A00293BD00006AE
:10602000DFF8540750F824000BD500F0300010289A
:106030002BD1204600F035FC3021204600F0E0FB5B
:1060400023E000F44050B0F5805F1ED16CB900F041
:106050006AFBDFF8240700684BF68F71084080F474
:106060004050DFF8141708600FE0204600F005FCF0
:10607000DFF8040750F82400DFF8FC164BF68F72A7
:10608000104080F4405041F82400FFF786FF40693B
:106090008047002010BD022010BD80B5DFF8CC067F
:1060A0000068417921F080000A06DFF8CC2652F81A
:1060B00020204CBF02F0300202F44052DFF8B0362C
:1060C0001B7898420CD2DFF8A4361B685B883BB97A
:1060D000002A1FBFDFF894261268927A002A01D1A5
:1060E000022002BD0906DFF8901651F82010DFF8F3
:1060F000882605D548F6BF73194081F0100104E0E9
:106100004BF68F73194081F4805142F82010FFF74D
:1061100044FF80698047002002BD80B500F047F948
:10612000407A40F0200000F095FA4872FFF735FF02
:10613000C0698047002002BDDFF830261268528A0D
:1061400038B98888801ADFF8241609680882002088
:10615000704708681018704770B5DFF810060068BF
:1061600000F110042588A068002818BF002D15D064
:10617000A088854288BF05462846A168884706460C
:106180002088401B2080608828186080002000F054
:10619000A5FB2A460146304600F012FC208860B17B
:1061A000DFF8DC054FF4405101800021002000F0B1
:1061B0009CFBDFF8D005302101802088A18888422F
:1061C00004D3DFF8A8050068032105E00028DFF804
:1061D0009C05006802D00521017270BD0621017284
:1061E000DFF8A405006880B2DFF8A015002241F8AE
:1061F0001020DFF890053021018070BDF8B5DFF880
:106200006C05006800F110042088002801BFDFF849
:106210005C150968097A042916D1DFF8740500783D
:1062200001280ED1DFF86005006880B2DFF85C1548
:10623000002241F8102030200425DFF854150A70A0
:1062400028E00725102025E0A688864205D30425EE
:10625000B04288BF3046064600E002253046A168BD
:1062600088470746002000F038FB32460146384692
:1062700000F091FB3146002000F037FB2088801BA6
:1062800020806088301860803020DFF8F4144FF4EC
:1062900040520A80DFF8EC140880DFF8D004006870
:1062A0000572F1BD10B5DFF8C40400684478DFF86A
:1062B000BC04006800787F21084254D1092C02D127
:1062C000FFF7B4FD63E0052C2AD1DFF8A0040068D5
:1062D000C078802869D2DFF89404006880780028AC
:1062E00001BFDFF888040068808800285DD1DFF8EE
:1062F0007C040068807A002857D10620DFF88814D3
:10630000096889B2DFF88424002342F81130DFF8ED
:10631000741430220A80DFF854140968087210BD22
:10632000032C10D100F043F8C078012801BFDFF83A
:106330003C040068808800282BD100F03CF828D568
:10634000FFF7EBFE23E0012C01BFDFF8200400681B
:10635000C07801281DD100F02AF88088C8B900F063
:106360002AF80DD415E000F02DF904D10B2C10D132
:10637000FFF791FD0BE000F016F90AD1012C02D1D4
:10638000FFF70FFE03E0032C03D1FFF786FE002882
:10639000B3D02046DFF8FC13096849698847032811
:1063A00008BF0920B7D00028A7D00820B3E7DFF83E
:1063B000BC0300687047DFF8B4030068407A8006C9
:1063C000704780B500F075F9062817D100F075F90F
:1063D00035D1FFF7ECFF8078012803D100F066F992
:1063E000C1697AE0022803D100F060F9016A74E023
:1063F000032824D100F05AF9416A6EE000284BD1FD
:1064000000F0CCF801BFDFF864030068C088022800
:1064100015D1FFF7CCFF007988B900F04EF901BF24
:10642000DFF8480300688088002833D000F0CAF8FD
:106430000FD100F0CEF810B900F0ABF82AD100F07F
:1064400038F9DFF85013096809698847032850D1E3
:1064500056E000F0A8F8F2D1FFF7A9FF407900F06C
:106460000F0000F0F7F8497901F07001BF4A126897
:1064700052791206C04A52F820204CBF02F0300276
:1064800002F44052BA4B1B789842D8D20029D6D198
:10649000002AD4D0C04920E0082804D100F00DF92A
:1064A000CDD1BE4919E00A28C9D100F08BF8C6D178
:1064B00000F06FF8C3D000F071F801BFAB4800687E
:1064C00000790028BBD1FFF772FFC0880128B6D140
:1064D00000F07FF80028B2D1B1490800AFD0FFF733
:1064E00066FF00224282FFF762FF81610020884739
:1064F00000209E490968098A4FF6FF72914203D134
:106500009A480068092106E0022801D0080004D159
:10651000964800680821017201BD9448006800781F
:106520000006924800682DD5C0880090009800F0C1
:1065300091F8098A8842FFF73AFF02D20099018256
:1065400016E0084600F086F8C988884210D200F0AC
:1065500031F8884202D28E48002108E000F02AF883
:1065600090FBF1F201FB120010B989480121017082
:10657000FFF71DFF8749096891F82C108182BDE85B
:1065800001403BE6032101727D484FF440510180F8
:1065900001BD76480068807A00287047734800681B
:1065A00040880028704771480068007800F07F003C
:1065B000022870476D480068008A7649096891F89A
:1065C0002C10704769480068007800F07F000128AF
:1065D000704700216548006840796E4A12689269E8
:1065E000104710B56848006880B26E4931F8100055
:1065F000400000F1804000F5C04000F02BF8097A1F
:10660000092917D000F029F80A7000F026F84A701E
:10661000841C34F8040B00F0B9F900F01BF8488032
:10662000208800F0B3F900F015F88880FFF7BFFE6E
:10663000A188C180FFF7BBFE01210172FFF7B7FE01
:10664000C08810B9FFF72EFE01E0FFF7BAFEBDE8E3
:10665000104050E04549096870474449096810F8FE
:10666000012B704780B500F064F8022818BF042899
:1066700004D1FFF7C3FD00F05CF816E0062813D143
:1066800000F017F805280BD100F017F808D1FFF734
:106690008EFEC07800F051F8FFF77FFC006A80475B
:1066A00000F004F88068804708201FE0394800683F
:1066B00070472E480068407870472C480068007882
:1066C0007F210842704780B500F033F8032818BFD7
:1066D000052804D1FFF740FD00F02BF806E007285D
:1066E00003D1FFF7E3FFC06880470820FFF7B2FF40
:1066F0000872BDE8014080B500F015F81B4800683D
:10670000007A082806D11E484FF4805101801D48A8
:106710001021018015480068007A092801D1012064
:1067200002BD002002BD204890F82C10002000F08F
:10673000E3B80E480068007A704730B50C49097814
:1067400000220D4D0AE0D3B255F8233048F68F747D
:106750002340D4B2234345F82430521C8A42F2D35A
:1067600040F080001149086030BD0000B8130020DF
:10677000440100207C140020005C0040C013002075
:106780008014002082140020505C0040046000400F
:106790008E140020BC130020EB5E0008155E00087C
:1067A000715E000808600040000000204C5C004062
:1067B000704710B450F8041B81B102681218001D14
:1067C00050F8043BDC0744BFA9F10104E31852F878
:1067D000044B43F8044B091FF9D1EBE710BC704799
:1067E0004FF6F8710840DFF88C1108607047DFF849
